{
  "fileName": "ExecuteCall.sol",
  "contractName": "ExecuteCall",
  "source": "pragma solidity ^0.5.4;\n\nimport \"@openzeppelin/contracts-ethereum-package/contracts/access/roles/WhitelistAdminRole.sol\";\nimport \"@openzeppelin/contracts-ethereum-package/contracts/access/roles/WhitelistedRole.sol\";\n\ncontract ExecuteCall is WhitelistAdminRole, WhitelistedRole {\n    uint256 constant OPERATION_CALL = 0;\n    uint256 constant OPERATION_CREATE = 1;\n    uint256 constant OPERATION_CREATE2 = 2;\n\n    event callExecuted(bool success);\n    event contractCreated(address contractAddress, uint256 contractType, address creatingContract);\n    event callExecuted(address to, uint256 value, bytes data);\n\n    function execute(\n        uint256 _operationType,\n        address _to,\n        uint256 _value,\n        bytes calldata _data,\n        uint256 salt\n    ) external onlyWhitelistAdmin() {\n        if (_operationType == OPERATION_CALL) {\n            executeCall(_to, _value, _data);\n            emit callExecuted(_to, _value, _data);\n        } else if (_operationType == OPERATION_CREATE) {\n            address newContract = executeCreate(_data);\n            emit contractCreated(newContract, OPERATION_CREATE, address(this));\n        } else if (_operationType == OPERATION_CREATE2) {\n            address newContract = executeCreate2(_data, salt);\n            emit contractCreated(newContract, OPERATION_CREATE2, address(this));\n        } else {\n            // We don't want to spend users gas if parametar is wrong\n            revert(\"Inccorect operation type\");\n        }\n    }\n\n    // copied from GnosisSafe\n    // https://github.com/gnosis/safe-contracts/blob/v0.0.2-alpha/contracts/base/Executor.sol\n    function executeCall(address to, uint256 value, bytes memory data)\n        internal\n        returns (bool success)\n    {\n        // solium-disable-next-line security/no-inline-assembly\n        assembly {\n            success := call(gas, to, value, add(data, 0x20), mload(data), 0, 0)\n        }\n        emit callExecuted(true);\n    }\n\n    // copied from GnosisSafe\n    // https://github.com/gnosis/safe-contracts/blob/v0.0.2-alpha/contracts/base/Executor.sol\n    function executeCreate(bytes memory data) internal returns (address newContract) {\n        // solium-disable-next-line security/no-inline-assembly\n        assembly {\n            newContract := create(0, add(data, 0x20), mload(data))\n        }\n\n        return newContract;\n    }\n\n    //copied from: https://github.com/miguelmota/solidity-create2-example/blob/master/test/test.js\n    function executeCreate2(bytes memory code, uint256 salt)\n        internal\n        returns (address newContract)\n    {\n        // solium-disable-next-line security/no-inline-assembly\n        assembly {\n            newContract := create2(0, add(code, 0x20), mload(code), salt)\n            if iszero(extcodesize(newContract)) {\n                revert(0, 0)\n            }\n        }\n        return newContract;\n    }\n}\n",
  "sourcePath": "contracts/ExecuteCall.sol",
  "abi": [
    {
      "anonymous": false,
      "inputs": [
        {
          "indexed": true,
          "internalType": "address",
          "name": "account",
          "type": "address"
        }
      ],
      "name": "WhitelistAdminAdded",
      "type": "event"
    },
    {
      "anonymous": false,
      "inputs": [
        {
          "indexed": true,
          "internalType": "address",
          "name": "account",
          "type": "address"
        }
      ],
      "name": "WhitelistAdminRemoved",
      "type": "event"
    },
    {
      "anonymous": false,
      "inputs": [
        {
          "indexed": true,
          "internalType": "address",
          "name": "account",
          "type": "address"
        }
      ],
      "name": "WhitelistedAdded",
      "type": "event"
    },
    {
      "anonymous": false,
      "inputs": [
        {
          "indexed": true,
          "internalType": "address",
          "name": "account",
          "type": "address"
        }
      ],
      "name": "WhitelistedRemoved",
      "type": "event"
    },
    {
      "anonymous": false,
      "inputs": [
        {
          "indexed": false,
          "internalType": "bool",
          "name": "success",
          "type": "bool"
        }
      ],
      "name": "callExecuted",
      "type": "event"
    },
    {
      "anonymous": false,
      "inputs": [
        {
          "indexed": false,
          "internalType": "address",
          "name": "to",
          "type": "address"
        },
        {
          "indexed": false,
          "internalType": "uint256",
          "name": "value",
          "type": "uint256"
        },
        {
          "indexed": false,
          "internalType": "bytes",
          "name": "data",
          "type": "bytes"
        }
      ],
      "name": "callExecuted",
      "type": "event"
    },
    {
      "anonymous": false,
      "inputs": [
        {
          "indexed": false,
          "internalType": "address",
          "name": "contractAddress",
          "type": "address"
        },
        {
          "indexed": false,
          "internalType": "uint256",
          "name": "contractType",
          "type": "uint256"
        },
        {
          "indexed": false,
          "internalType": "address",
          "name": "creatingContract",
          "type": "address"
        }
      ],
      "name": "contractCreated",
      "type": "event"
    },
    {
      "constant": false,
      "inputs": [
        {
          "internalType": "address",
          "name": "account",
          "type": "address"
        }
      ],
      "name": "addWhitelistAdmin",
      "outputs": [],
      "payable": false,
      "stateMutability": "nonpayable",
      "type": "function"
    },
    {
      "constant": false,
      "inputs": [
        {
          "internalType": "address",
          "name": "account",
          "type": "address"
        }
      ],
      "name": "addWhitelisted",
      "outputs": [],
      "payable": false,
      "stateMutability": "nonpayable",
      "type": "function"
    },
    {
      "constant": false,
      "inputs": [
        {
          "internalType": "uint256",
          "name": "_operationType",
          "type": "uint256"
        },
        {
          "internalType": "address",
          "name": "_to",
          "type": "address"
        },
        {
          "internalType": "uint256",
          "name": "_value",
          "type": "uint256"
        },
        {
          "internalType": "bytes",
          "name": "_data",
          "type": "bytes"
        },
        {
          "internalType": "uint256",
          "name": "salt",
          "type": "uint256"
        }
      ],
      "name": "execute",
      "outputs": [],
      "payable": false,
      "stateMutability": "nonpayable",
      "type": "function"
    },
    {
      "constant": false,
      "inputs": [
        {
          "internalType": "address",
          "name": "sender",
          "type": "address"
        }
      ],
      "name": "initialize",
      "outputs": [],
      "payable": false,
      "stateMutability": "nonpayable",
      "type": "function"
    },
    {
      "constant": true,
      "inputs": [
        {
          "internalType": "address",
          "name": "account",
          "type": "address"
        }
      ],
      "name": "isWhitelistAdmin",
      "outputs": [
        {
          "internalType": "bool",
          "name": "",
          "type": "bool"
        }
      ],
      "payable": false,
      "stateMutability": "view",
      "type": "function"
    },
    {
      "constant": true,
      "inputs": [
        {
          "internalType": "address",
          "name": "account",
          "type": "address"
        }
      ],
      "name": "isWhitelisted",
      "outputs": [
        {
          "internalType": "bool",
          "name": "",
          "type": "bool"
        }
      ],
      "payable": false,
      "stateMutability": "view",
      "type": "function"
    },
    {
      "constant": false,
      "inputs": [
        {
          "internalType": "address",
          "name": "account",
          "type": "address"
        }
      ],
      "name": "removeWhitelisted",
      "outputs": [],
      "payable": false,
      "stateMutability": "nonpayable",
      "type": "function"
    },
    {
      "constant": false,
      "inputs": [],
      "name": "renounceWhitelistAdmin",
      "outputs": [],
      "payable": false,
      "stateMutability": "nonpayable",
      "type": "function"
    },
    {
      "constant": false,
      "inputs": [],
      "name": "renounceWhitelisted",
      "outputs": [],
      "payable": false,
      "stateMutability": "nonpayable",
      "type": "function"
    }
  ],
  "bytecode": "0x60806040525b5b61000b565b6111638061001a6000396000f3fe60806040523480156100115760006000fd5b50600436106100985760003560e01c80634e0dbb27116100675780634e0dbb271461018f5780637362d9c81461024c578063bb5f747b14610291578063c4d66de8146102ee578063d6cd94731461033357610098565b806310154bad1461009e578063291d9549146100e35780633af32abf146101285780634c5a628c1461018557610098565b60006000fd5b6100e1600480360360208110156100b55760006000fd5b81019080803573ffffffffffffffffffffffffffffffffffffffff16906020019092919050505061033d565b005b610126600480360360208110156100fa5760006000fd5b81019080803573ffffffffffffffffffffffffffffffffffffffff1690602001909291905050506103c4565b005b61016b6004803603602081101561013f5760006000fd5b81019080803573ffffffffffffffffffffffffffffffffffffffff16906020019092919050505061044b565b604051808215151515815260200191505060405180910390f35b61018d610470565b005b61024a600480360360a08110156101a65760006000fd5b8101908080359060200190929190803573ffffffffffffffffffffffffffffffffffffffff16906020019092919080359060200190929190803590602001906401000000008111156101f85760006000fd5b82018360208201111561020b5760006000fd5b8035906020019184600183028401116401000000008311171561022e5760006000fd5b909192939090919293908035906020019092919050505061048f565b005b61028f600480360360208110156102635760006000fd5b81019080803573ffffffffffffffffffffffffffffffffffffffff16906020019092919050505061088f565b005b6102d4600480360360208110156102a85760006000fd5b81019080803573ffffffffffffffffffffffffffffffffffffffff169060200190929190505050610916565b604051808215151515815260200191505060405180910390f35b610331600480360360208110156103055760006000fd5b81019080803573ffffffffffffffffffffffffffffffffffffffff16906020019092919050505061093b565b005b61033b610a58565b005b61035961034e610a7763ffffffff16565b61091663ffffffff16565b15156103b0576040517f08c379a00000000000000000000000000000000000000000000000000000000081526004018080602001828103825260408152602001806110ef6040913960400191505060405180910390fd5b6103bf81610a8463ffffffff16565b5b5b50565b6103e06103d5610a7763ffffffff16565b61091663ffffffff16565b1515610437576040517f08c379a00000000000000000000000000000000000000000000000000000000081526004018080602001828103825260408152602001806110ef6040913960400191505060405180910390fd5b61044681610ae263ffffffff16565b5b5b50565b6000610464826066600050610b4090919063ffffffff16565b905061046b565b919050565b61048c610481610a7763ffffffff16565b610c2963ffffffff16565b5b565b6104ab6104a0610a7763ffffffff16565b61091663ffffffff16565b1515610502576040517f08c379a00000000000000000000000000000000000000000000000000000000081526004018080602001828103825260408152602001806110ef6040913960400191505060405180910390fd5b600086141561060557610560858585858080601f016020809104026020016040519081016040528093929190818152602001838380828437600081840152601f19601f82011690508083019250505050505050610c8763ffffffff16565b507f1a28cb01c5e3dd7f032c8e801c0c185b4696c63e19f24fbd3277186a638bb48085858585604051808573ffffffffffffffffffffffffffffffffffffffff1673ffffffffffffffffffffffffffffffffffffffff168152602001848152602001806020018281038252848482818152602001925080828437600081840152601f19601f8201169050808301925050509550505050505060405180910390a1610885565b600186141561070b57600061066384848080601f016020809104026020016040519081016040528093929190818152602001838380828437600081840152601f19601f82011690508083019250505050505050610cdd63ffffffff16565b90507ffe829b737a26ff6fbe0787f5c2f92931e51b628a5390854d0e819a918631a75c81600130604051808473ffffffffffffffffffffffffffffffffffffffff1673ffffffffffffffffffffffffffffffffffffffff1681526020018381526020018273ffffffffffffffffffffffffffffffffffffffff1673ffffffffffffffffffffffffffffffffffffffff168152602001935050505060405180910390a150610884565b600286141561081257600061076a84848080601f016020809104026020016040519081016040528093929190818152602001838380828437600081840152601f19601f8201169050808301925050505050505083610cf763ffffffff16565b90507ffe829b737a26ff6fbe0787f5c2f92931e51b628a5390854d0e819a918631a75c81600230604051808473ffffffffffffffffffffffffffffffffffffffff1673ffffffffffffffffffffffffffffffffffffffff1681526020018381526020018273ffffffffffffffffffffffffffffffffffffffff1673ffffffffffffffffffffffffffffffffffffffff168152602001935050505060405180910390a150610883565b6040517f08c379a00000000000000000000000000000000000000000000000000000000081526004018080602001828103825260188152602001807f496e63636f72656374206f7065726174696f6e2074797065000000000000000081526020015060200191505060405180910390fd5b5b5b5b5b505050505050565b6108ab6108a0610a7763ffffffff16565b61091663ffffffff16565b1515610902576040517f08c379a00000000000000000000000000000000000000000000000000000000081526004018080602001828103825260408152602001806110ef6040913960400191505060405180910390fd5b61091181610d2163ffffffff16565b5b5b50565b600061092f826033600050610b4090919063ffffffff16565b9050610936565b919050565b600060019054906101000a900460ff1680610960575061095f610d7f63ffffffff16565b5b806109785750600060009054906101000a900460ff16155b15156109cf576040517f08c379a000000000000000000000000000000000000000000000000000000000815260040180806020018281038252602e8152602001806110c1602e913960400191505060405180910390fd5b6000600060019054906101000a900460ff161590508015610a21576001600060016101000a81548160ff0219169083151502179055506001600060006101000a81548160ff0219169083151502179055505b610a3082610d9763ffffffff16565b5b8015610a53576000600060016101000a81548160ff0219169083151502179055505b505b50565b610a74610a69610a7763ffffffff16565b610ae263ffffffff16565b5b565b6000339050610a81565b90565b610a9b816066600050610eca90919063ffffffff16565b8073ffffffffffffffffffffffffffffffffffffffff167fee1504a83b6d4a361f4c1dc78ab59bfa30d6a3b6612c403e86bb01ef2984295f60405160405180910390a25b50565b610af9816066600050610fb490919063ffffffff16565b8073ffffffffffffffffffffffffffffffffffffffff167f270d9b30cf5b0793bbfd54c9d5b94aeb49462b8148399000265144a8722da6b660405160405180910390a25b50565b6000600073ffffffffffffffffffffffffffffffffffffffff168273ffffffffffffffffffffffffffffffffffffffff1614151515610bca576040517f08c379a000000000000000000000000000000000000000000000000000000000815260040180806020018281038252602281526020018061109f6022913960400191505060405180910390fd5b8260000160005060008373ffffffffffffffffffffffffffffffffffffffff1673ffffffffffffffffffffffffffffffffffffffff16815260200190815260200160002060009054906101000a900460ff169050610c23565b92915050565b610c40816033600050610fb490919063ffffffff16565b8073ffffffffffffffffffffffffffffffffffffffff167f0a8eb35e5ca14b3d6f28e4abf2f128dbab231a58b56e89beb5d636115001e16560405160405180910390a25b50565b60006000600083516020850186885af190507fe73b8181f011aee3ffff208106e187c5ca9e497803ce00e63db3a60a266225bd6001604051808215151515815260200191505060405180910390a15b9392505050565b60008151602083016000f09050809050610cf2565b919050565b6000818351602085016000f59050803b1515610d135760006000fd5b809050610d1b565b92915050565b610d38816033600050610eca90919063ffffffff16565b8073ffffffffffffffffffffffffffffffffffffffff167f22380c05984257a1cb900161c713dd71d39e74820f1aea43bd3f1bdd2096129960405160405180910390a25b50565b60006000303b905060008114915050610d9456505b90565b600060019054906101000a900460ff1680610dbc5750610dbb610d7f63ffffffff16565b5b80610dd45750600060009054906101000a900460ff16155b1515610e2b576040517f08c379a000000000000000000000000000000000000000000000000000000000815260040180806020018281038252602e8152602001806110c1602e913960400191505060405180910390fd5b6000600060019054906101000a900460ff161590508015610e7d576001600060016101000a81548160ff0219169083151502179055506001600060006101000a81548160ff0219169083151502179055505b610e8c8261091663ffffffff16565b1515610ea257610ea182610d2163ffffffff16565b5b5b8015610ec5576000600060016101000a81548160ff0219169083151502179055505b505b50565b610eda8282610b4063ffffffff16565b151515610f52576040517f08c379a000000000000000000000000000000000000000000000000000000000815260040180806020018281038252601f8152602001807f526f6c65733a206163636f756e7420616c72656164792068617320726f6c650081526020015060200191505060405180910390fd5b60018260000160005060008373ffffffffffffffffffffffffffffffffffffffff1673ffffffffffffffffffffffffffffffffffffffff16815260200190815260200160002060006101000a81548160ff0219169083151502179055505b5050565b610fc48282610b4063ffffffff16565b151561101b576040517f08c379a000000000000000000000000000000000000000000000000000000000815260040180806020018281038252602181526020018061107e6021913960400191505060405180910390fd5b60008260000160005060008373ffffffffffffffffffffffffffffffffffffffff1673ffffffffffffffffffffffffffffffffffffffff16815260200190815260200160002060006101000a81548160ff0219169083151502179055505b505056fe526f6c65733a206163636f756e7420646f6573206e6f74206861766520726f6c65526f6c65733a206163636f756e7420697320746865207a65726f2061646472657373436f6e747261637420696e7374616e63652068617320616c7265616479206265656e20696e697469616c697a656457686974656c69737441646d696e526f6c653a2063616c6c657220646f6573206e6f742068617665207468652057686974656c69737441646d696e20726f6c65a265627a7a723158209357f1331fd9d02362a480ce2862dac10873367406906f5300c22718949c87f464736f6c634300050c0032",
  "compiler": {
    "name": "solc",
    "version": "0.5.12+commit.7709ece9.Darwin.appleclang",
    "optimizer": {},
    "evmVersion": "constantinople"
  }
}