{
  "fileName": "IdentityFactory.sol",
  "contractName": "IdentityFactory",
  "source": "pragma solidity ^0.5.4;\n\nimport \"./Identity.sol\";\nimport \"@openzeppelin/contracts-ethereum-package/contracts/GSN/Context.sol\";\nimport \"@openzeppelin/upgrades/contracts/Initializable.sol\";\nimport \"@openzeppelin/contracts-ethereum-package/contracts/drafts/Counters.sol\";\n\ncontract IdentityFactory is Initializable, Context {\n    using Counters for Counters.Counter;\n    Counters.Counter public identityCount;\n\n    bool public contractInitialized;\n\n    mapping(uint256 => Identity) public identities;\n\n    event identityCreated(\n        address identityAddress,\n        address owner,\n        uint256 identityId,\n        string metadata\n    );\n    event identityFactoryCreated(address factoryAddress);\n\n    function initialize() public initializer {\n        contractInitialized = true;\n        emit identityFactoryCreated(address(this));\n    }\n\n    function createIdentity(address _initialOwner, string calldata _metadata) external {\n        uint256 identityId = identityCount.current();\n        Identity identity;\n        identity = new Identity();\n        identity.initialize(address(this));\n        identity.addWhitelistAdmin(_initialOwner);\n        identity.addIdMetadata(_metadata);\n        identity.renounceWhitelistAdmin();\n        identities[identityId] = identity;\n        identityCount.increment();\n        emit identityCreated(address(identity), _msgSender(), identityId, _metadata);\n    }\n\n}\n",
  "sourcePath": "contracts/IdentityFactory.sol",
  "abi": [
    {
      "anonymous": false,
      "inputs": [
        {
          "indexed": false,
          "internalType": "address",
          "name": "identityAddress",
          "type": "address"
        },
        {
          "indexed": false,
          "internalType": "address",
          "name": "owner",
          "type": "address"
        },
        {
          "indexed": false,
          "internalType": "uint256",
          "name": "identityId",
          "type": "uint256"
        },
        {
          "indexed": false,
          "internalType": "string",
          "name": "metadata",
          "type": "string"
        }
      ],
      "name": "identityCreated",
      "type": "event"
    },
    {
      "anonymous": false,
      "inputs": [
        {
          "indexed": false,
          "internalType": "address",
          "name": "factoryAddress",
          "type": "address"
        }
      ],
      "name": "identityFactoryCreated",
      "type": "event"
    },
    {
      "constant": true,
      "inputs": [],
      "name": "contractInitialized",
      "outputs": [
        {
          "internalType": "bool",
          "name": "",
          "type": "bool"
        }
      ],
      "payable": false,
      "stateMutability": "view",
      "type": "function"
    },
    {
      "constant": false,
      "inputs": [
        {
          "internalType": "address",
          "name": "_initialOwner",
          "type": "address"
        },
        {
          "internalType": "string",
          "name": "_metadata",
          "type": "string"
        }
      ],
      "name": "createIdentity",
      "outputs": [],
      "payable": false,
      "stateMutability": "nonpayable",
      "type": "function"
    },
    {
      "constant": true,
      "inputs": [
        {
          "internalType": "uint256",
          "name": "",
          "type": "uint256"
        }
      ],
      "name": "identities",
      "outputs": [
        {
          "internalType": "contract Identity",
          "name": "",
          "type": "address"
        }
      ],
      "payable": false,
      "stateMutability": "view",
      "type": "function"
    },
    {
      "constant": true,
      "inputs": [],
      "name": "identityCount",
      "outputs": [
        {
          "internalType": "uint256",
          "name": "_value",
          "type": "uint256"
        }
      ],
      "payable": false,
      "stateMutability": "view",
      "type": "function"
    },
    {
      "constant": false,
      "inputs": [],
      "name": "initialize",
      "outputs": [],
      "payable": false,
      "stateMutability": "nonpayable",
      "type": "function"
    }
  ],
  "bytecode": "0x60806040525b5b61000b565b6126cb8061001a6000396000f3fe60806040523480156100115760006000fd5b506004361061005b5760003560e01c8062b347471461006157806338678ba5146100835780638129fc1c146100a15780638e952bfe146100ab578063eaaf77e61461014a5761005b565b60006000fd5b6100696101b9565b604051808215151515815260200191505060405180910390f35b61008b6101cc565b6040518082815260200191505060405180910390f35b6100a96101de565b005b610148600480360360408110156100c25760006000fd5b81019080803573ffffffffffffffffffffffffffffffffffffffff169060200190929190803590602001906401000000008111156101005760006000fd5b8201836020820111156101135760006000fd5b803590602001918460018302840111640100000000831117156101365760006000fd5b90919293909091929390505050610369565b005b610177600480360360208110156101615760006000fd5b8101908080359060200190929190505050610731565b604051808273ffffffffffffffffffffffffffffffffffffffff1673ffffffffffffffffffffffffffffffffffffffff16815260200191505060405180910390f35b603460009054906101000a900460ff1681565b60336000508060000160005054905081565b600060019054906101000a900460ff1680610203575061020261076963ffffffff16565b5b8061021b5750600060009054906101000a900460ff16155b1515610272576040517f08c379a000000000000000000000000000000000000000000000000000000000815260040180806020018281038252602e815260200180612669602e913960400191505060405180910390fd5b6000600060019054906101000a900460ff1615905080156102c4576001600060016101000a81548160ff0219169083151502179055506001600060006101000a81548160ff0219169083151502179055505b6001603460006101000a81548160ff0219169083151502179055507ff01667823aa95174ffb65f76f8dd7ea3dae2638f5a3a50a94c58cc083f8f6c8830604051808273ffffffffffffffffffffffffffffffffffffffff1673ffffffffffffffffffffffffffffffffffffffff16815260200191505060405180910390a15b8015610365576000600060016101000a81548160ff0219169083151502179055505b505b565b60006103806033600050610781909063ffffffff16565b90506000604051610390906107bf565b604051809103906000f0801580156103ad573d600060003e3d6000fd5b50905080508073ffffffffffffffffffffffffffffffffffffffff1663c4d66de8306040518263ffffffff1660e01b8152600401808273ffffffffffffffffffffffffffffffffffffffff1673ffffffffffffffffffffffffffffffffffffffff168152602001915050600060405180830381600087803b1580156104325760006000fd5b505af1158015610447573d600060003e3d6000fd5b505050508073ffffffffffffffffffffffffffffffffffffffff16637362d9c8866040518263ffffffff1660e01b8152600401808273ffffffffffffffffffffffffffffffffffffffff1673ffffffffffffffffffffffffffffffffffffffff168152602001915050600060405180830381600087803b1580156104cb5760006000fd5b505af11580156104e0573d600060003e3d6000fd5b505050508073ffffffffffffffffffffffffffffffffffffffff1663d3e240e185856040518363ffffffff1660e01b815260040180806020018281038252848482818152602001925080828437600081840152601f19601f8201169050808301925050509350505050600060405180830381600087803b1580156105645760006000fd5b505af1158015610579573d600060003e3d6000fd5b505050508073ffffffffffffffffffffffffffffffffffffffff16634c5a628c6040518163ffffffff1660e01b8152600401600060405180830381600087803b1580156105c65760006000fd5b505af11580156105db573d600060003e3d6000fd5b50505050806035600050600084815260200190815260200160002060006101000a81548173ffffffffffffffffffffffffffffffffffffffff021916908373ffffffffffffffffffffffffffffffffffffffff1602179055506106496033600050610797909063ffffffff16565b7fa0e8a400e2244dc09da4d622b0eb1f6679d4885a76787ef8021e45f278af24a1816106796107b263ffffffff16565b848787604051808673ffffffffffffffffffffffffffffffffffffffff1673ffffffffffffffffffffffffffffffffffffffff1681526020018573ffffffffffffffffffffffffffffffffffffffff1673ffffffffffffffffffffffffffffffffffffffff168152602001848152602001806020018281038252848482818152602001925080828437600081840152601f19601f820116905080830192505050965050505050505060405180910390a150505b505050565b603560005060205280600052604060002060009150909054906101000a900473ffffffffffffffffffffffffffffffffffffffff1681565b60006000303b90506000811491505061077e56505b90565b600081600001600050549050610792565b919050565b60018160000160008282825054019250508190909055505b50565b60003390506107bc565b90565b611e9c806107cd8339019056fe60806040525b5b61000b565b611e828061001a6000396000f3fe6080604052600436106101025760003560e01c80637362d9c811610095578063d3e240e111610064578063d3e240e1146105ea578063d6cd947314610677578063e3684e391461068f578063e8c15d5214610746578063f463abac1461077257610102565b80637362d9c81461043e5780637f23690c14610491578063bb5f747b1461052c578063c4d66de81461059757610102565b806349dcbc5e116100d157806349dcbc5e146102435780634c5a628c146102a05780634e0dbb27146102b857806354f6127f1461038357610102565b806310154bad14610106578063291d954914610159578063342afb7e146101ac5780633af32abf146101d857610102565b5b5b005b3480156101135760006000fd5b506101576004803603602081101561012b5760006000fd5b81019080803573ffffffffffffffffffffffffffffffffffffffff169060200190929190505050610829565b005b3480156101665760006000fd5b506101aa6004803603602081101561017e5760006000fd5b81019080803573ffffffffffffffffffffffffffffffffffffffff1690602001909291905050506108b0565b005b3480156101b95760006000fd5b506101c2610937565b6040518082815260200191505060405180910390f35b3480156101e55760006000fd5b50610229600480360360208110156101fd5760006000fd5b81019080803573ffffffffffffffffffffffffffffffffffffffff169060200190929190505050610949565b604051808215151515815260200191505060405180910390f35b3480156102505760006000fd5b5061029e600480360360408110156102685760006000fd5b81019080803573ffffffffffffffffffffffffffffffffffffffff1690602001909291908035906020019092919050505061096e565b005b3480156102ad5760006000fd5b506102b6610a9a565b005b3480156102c55760006000fd5b50610381600480360360a08110156102dd5760006000fd5b8101908080359060200190929190803573ffffffffffffffffffffffffffffffffffffffff169060200190929190803590602001909291908035906020019064010000000081111561032f5760006000fd5b8201836020820111156103425760006000fd5b803590602001918460018302840111640100000000831117156103655760006000fd5b9091929390909192939080359060200190929190505050610ab9565b005b3480156103905760006000fd5b506103c2600480360360208110156103a85760006000fd5b810190808035600019169060200190929190505050610eb9565b6040518080602001828103825283818151815260200191508051906020019080838360005b838110156104035780820151818401525b6020810190506103e7565b50505050905090810190601f1680156104305780820380516001836020036101000a031916815260200191505b509250505060405180910390f35b34801561044b5760006000fd5b5061048f600480360360208110156104635760006000fd5b81019080803573ffffffffffffffffffffffffffffffffffffffff169060200190929190505050610f81565b005b34801561049e5760006000fd5b5061052a600480360360408110156104b65760006000fd5b810190808035600019169060200190929190803590602001906401000000008111156104e25760006000fd5b8201836020820111156104f55760006000fd5b803590602001918460018302840111640100000000831117156105185760006000fd5b90919293909091929390505050611008565b005b3480156105395760006000fd5b5061057d600480360360208110156105515760006000fd5b81019080803573ffffffffffffffffffffffffffffffffffffffff16906020019092919050505061111b565b604051808215151515815260200191505060405180910390f35b3480156105a45760006000fd5b506105e8600480360360208110156105bc5760006000fd5b81019080803573ffffffffffffffffffffffffffffffffffffffff169060200190929190505050611140565b005b3480156105f75760006000fd5b506106756004803603602081101561060f5760006000fd5b810190808035906020019064010000000081111561062d5760006000fd5b8201836020820111156106405760006000fd5b803590602001918460018302840111640100000000831117156106635760006000fd5b9091929390909192939050505061125d565b005b3480156106845760006000fd5b5061068d6113e5565b005b34801561069c5760006000fd5b506106ca600480360360208110156106b45760006000fd5b8101908080359060200190929190505050611404565b6040518080602001828103825283818151815260200191508051906020019080838360005b8381101561070b5780820151818401525b6020810190506106ef565b50505050905090810190601f1680156107385780820380516001836020036101000a031916815260200191505b509250505060405180910390f35b3480156107535760006000fd5b5061075c6114c4565b6040518082815260200191505060405180910390f35b34801561077f5760006000fd5b506107ad600480360360208110156107975760006000fd5b81019080803590602001909291905050506114e5565b6040518080602001828103825283818151815260200191508051906020019080838360005b838110156107ee5780820151818401525b6020810190506107d2565b50505050905090810190601f16801561081b5780820380516001836020036101000a031916815260200191505b509250505060405180910390f35b61084561083a61163063ffffffff16565b61111b63ffffffff16565b151561089c576040517f08c379a0000000000000000000000000000000000000000000000000000000008152600401808060200182810382526040815260200180611e0e6040913960400191505060405180910390fd5b6108ab8161163d63ffffffff16565b5b5b50565b6108cc6108c161163063ffffffff16565b61111b63ffffffff16565b1515610923576040517f08c379a0000000000000000000000000000000000000000000000000000000008152600401808060200182810382526040815260200180611e0e6040913960400191505060405180910390fd5b6109328161169b63ffffffff16565b5b5b50565b609a6000508060000160005054905081565b60006109628260666000506116f990919063ffffffff16565b9050610969565b919050565b61098a61097f61163063ffffffff16565b61111b63ffffffff16565b15156109e1576040517f08c379a0000000000000000000000000000000000000000000000000000000008152600401808060200182810382526040815260200180611e0e6040913960400191505060405180910390fd5b8173ffffffffffffffffffffffffffffffffffffffff166108fc829081150290604051600060405180830381858888f19350505050158015610a28573d600060003e3d6000fd5b507f78f5cdad99320ec2ba57132d7dffb1d125775c823239e60ff5e9300fd4ac898c8282604051808373ffffffffffffffffffffffffffffffffffffffff1673ffffffffffffffffffffffffffffffffffffffff1681526020018281526020019250505060405180910390a15b5b5050565b610ab6610aab61163063ffffffff16565b6117e263ffffffff16565b5b565b610ad5610aca61163063ffffffff16565b61111b63ffffffff16565b1515610b2c576040517f08c379a0000000000000000000000000000000000000000000000000000000008152600401808060200182810382526040815260200180611e0e6040913960400191505060405180910390fd5b6000861415610c2f57610b8a858585858080601f016020809104026020016040519081016040528093929190818152602001838380828437600081840152601f19601f8201169050808301925050505050505061184063ffffffff16565b507f1a28cb01c5e3dd7f032c8e801c0c185b4696c63e19f24fbd3277186a638bb48085858585604051808573ffffffffffffffffffffffffffffffffffffffff1673ffffffffffffffffffffffffffffffffffffffff168152602001848152602001806020018281038252848482818152602001925080828437600081840152601f19601f8201169050808301925050509550505050505060405180910390a1610eaf565b6001861415610d35576000610c8d84848080601f016020809104026020016040519081016040528093929190818152602001838380828437600081840152601f19601f8201169050808301925050505050505061189663ffffffff16565b90507ffe829b737a26ff6fbe0787f5c2f92931e51b628a5390854d0e819a918631a75c81600130604051808473ffffffffffffffffffffffffffffffffffffffff1673ffffffffffffffffffffffffffffffffffffffff1681526020018381526020018273ffffffffffffffffffffffffffffffffffffffff1673ffffffffffffffffffffffffffffffffffffffff168152602001935050505060405180910390a150610eae565b6002861415610e3c576000610d9484848080601f016020809104026020016040519081016040528093929190818152602001838380828437600081840152601f19601f82011690508083019250505050505050836118b063ffffffff16565b90507ffe829b737a26ff6fbe0787f5c2f92931e51b628a5390854d0e819a918631a75c81600230604051808473ffffffffffffffffffffffffffffffffffffffff1673ffffffffffffffffffffffffffffffffffffffff1681526020018381526020018273ffffffffffffffffffffffffffffffffffffffff1673ffffffffffffffffffffffffffffffffffffffff168152602001935050505060405180910390a150610ead565b6040517f08c379a00000000000000000000000000000000000000000000000000000000081526004018080602001828103825260188152602001807f496e63636f72656374206f7065726174696f6e2074797065000000000000000081526020015060200191505060405180910390fd5b5b5b5b5b505050505050565b60606099600050600083600019166000191681526020019081526020016000206000508054600181600116156101000203166002900480601f016020809104026020016040519081016040528092919081815260200182805460018160011615610100020316600290048015610f705780601f10610f4557610100808354040283529160200191610f70565b820191906000526020600020905b815481529060010190602001808311610f5357829003601f168201915b50505050509050610f7c565b919050565b610f9d610f9261163063ffffffff16565b61111b63ffffffff16565b1515610ff4576040517f08c379a0000000000000000000000000000000000000000000000000000000008152600401808060200182810382526040815260200180611e0e6040913960400191505060405180910390fd5b611003816118da63ffffffff16565b5b5b50565b61102461101961163063ffffffff16565b61111b63ffffffff16565b151561107b576040517f08c379a0000000000000000000000000000000000000000000000000000000008152600401808060200182810382526040815260200180611e0e6040913960400191505060405180910390fd5b818160996000506000866000191660001916815260200190815260200160002060005091906110ab929190611c67565b5082600019167fece574603820d07bc9b91f2a932baadf4628aabcb8afba49776529c14a6104b2838360405180806020018281038252848482818152602001925080828437600081840152601f19601f820116905080830192505050935050505060405180910390a25b5b505050565b60006111348260336000506116f990919063ffffffff16565b905061113b565b919050565b600060019054906101000a900460ff1680611165575061116461193863ffffffff16565b5b8061117d5750600060009054906101000a900460ff16155b15156111d4576040517f08c379a000000000000000000000000000000000000000000000000000000000815260040180806020018281038252602e815260200180611de0602e913960400191505060405180910390fd5b6000600060019054906101000a900460ff161590508015611226576001600060016101000a81548160ff0219169083151502179055506001600060006101000a81548160ff0219169083151502179055505b6112358261195063ffffffff16565b5b8015611258576000600060016101000a81548160ff0219169083151502179055505b505b50565b61127961126e61163063ffffffff16565b61111b63ffffffff16565b15156112d0576040517f08c379a0000000000000000000000000000000000000000000000000000000008152600401808060200182810382526040815260200180611e0e6040913960400191505060405180910390fd5b609b60005082829091806001815401808255809150509060018203906000526020600020900160005b9091929390919293909192909192509190611315929190611cec565b50507fea4b4f247d37e31b9df3f1307131b74ca20ac139e9c712389e2ecba3c2b285a4308383611350609a600050611a83909063ffffffff16565b604051808573ffffffffffffffffffffffffffffffffffffffff1673ffffffffffffffffffffffffffffffffffffffff168152602001806020018381526020018281038252858582818152602001925080828437600081840152601f19601f8201169050808301925050509550505050505060405180910390a16113df609a600050611a99909063ffffffff16565b5b5b5050565b6114016113f661163063ffffffff16565b61169b63ffffffff16565b5b565b609b6000508181548110151561141657fe5b906000526020600020900160005b915090508054600181600116156101000203166002900480601f0160208091040260200160405190810160405280929190818152602001828054600181600116156101000203166002900480156114bc5780601f10611491576101008083540402835291602001916114bc565b820191906000526020600020905b81548152906001019060200180831161149f57829003601f168201915b505050505081565b60006114db609a600050611a83909063ffffffff16565b90506114e2565b90565b6060609b60005080549050821115151561156a576040517f08c379a000000000000000000000000000000000000000000000000000000000815260040180806020018281038252601e8152602001807f4d65746164617461207265636f726420646f6573206e6f74206578697374000081526020015060200191505060405180910390fd5b609b6000508281548110151561157c57fe5b906000526020600020900160005b508054600181600116156101000203166002900480601f01602080910402602001604051908101604052809291908181526020018280546001816001161561010002031660029004801561161f5780601f106115f45761010080835404028352916020019161161f565b820191906000526020600020905b81548152906001019060200180831161160257829003601f168201915b5050505050905061162b565b919050565b600033905061163a565b90565b611654816066600050611ab490919063ffffffff16565b8073ffffffffffffffffffffffffffffffffffffffff167fee1504a83b6d4a361f4c1dc78ab59bfa30d6a3b6612c403e86bb01ef2984295f60405160405180910390a25b50565b6116b2816066600050611b9e90919063ffffffff16565b8073ffffffffffffffffffffffffffffffffffffffff167f270d9b30cf5b0793bbfd54c9d5b94aeb49462b8148399000265144a8722da6b660405160405180910390a25b50565b6000600073ffffffffffffffffffffffffffffffffffffffff168273ffffffffffffffffffffffffffffffffffffffff1614151515611783576040517f08c379a0000000000000000000000000000000000000000000000000000000008152600401808060200182810382526022815260200180611dbe6022913960400191505060405180910390fd5b8260000160005060008373ffffffffffffffffffffffffffffffffffffffff1673ffffffffffffffffffffffffffffffffffffffff16815260200190815260200160002060009054906101000a900460ff1690506117dc565b92915050565b6117f9816033600050611b9e90919063ffffffff16565b8073ffffffffffffffffffffffffffffffffffffffff167f0a8eb35e5ca14b3d6f28e4abf2f128dbab231a58b56e89beb5d636115001e16560405160405180910390a25b50565b60006000600083516020850186885af190507fe73b8181f011aee3ffff208106e187c5ca9e497803ce00e63db3a60a266225bd6001604051808215151515815260200191505060405180910390a15b9392505050565b60008151602083016000f090508090506118ab565b919050565b6000818351602085016000f59050803b15156118cc5760006000fd5b8090506118d4565b92915050565b6118f1816033600050611ab490919063ffffffff16565b8073ffffffffffffffffffffffffffffffffffffffff167f22380c05984257a1cb900161c713dd71d39e74820f1aea43bd3f1bdd2096129960405160405180910390a25b50565b60006000303b90506000811491505061194d56505b90565b600060019054906101000a900460ff1680611975575061197461193863ffffffff16565b5b8061198d5750600060009054906101000a900460ff16155b15156119e4576040517f08c379a000000000000000000000000000000000000000000000000000000000815260040180806020018281038252602e815260200180611de0602e913960400191505060405180910390fd5b6000600060019054906101000a900460ff161590508015611a36576001600060016101000a81548160ff0219169083151502179055506001600060006101000a81548160ff0219169083151502179055505b611a458261111b63ffffffff16565b1515611a5b57611a5a826118da63ffffffff16565b5b5b8015611a7e576000600060016101000a81548160ff0219169083151502179055505b505b50565b600081600001600050549050611a94565b919050565b60018160000160008282825054019250508190909055505b50565b611ac482826116f963ffffffff16565b151515611b3c576040517f08c379a000000000000000000000000000000000000000000000000000000000815260040180806020018281038252601f8152602001807f526f6c65733a206163636f756e7420616c72656164792068617320726f6c650081526020015060200191505060405180910390fd5b60018260000160005060008373ffffffffffffffffffffffffffffffffffffffff1673ffffffffffffffffffffffffffffffffffffffff16815260200190815260200160002060006101000a81548160ff0219169083151502179055505b5050565b611bae82826116f963ffffffff16565b1515611c05576040517f08c379a0000000000000000000000000000000000000000000000000000000008152600401808060200182810382526021815260200180611d9d6021913960400191505060405180910390fd5b60008260000160005060008373ffffffffffffffffffffffffffffffffffffffff1673ffffffffffffffffffffffffffffffffffffffff16815260200190815260200160002060006101000a81548160ff0219169083151502179055505b5050565b828054600181600116156101000203166002900490600052602060002090601f016020900481019282601f10611ca857803560ff1916838001178555611cdb565b82800160010185558215611cdb579182015b82811115611cda5782358260005090905591602001919060010190611cba565b5b509050611ce89190611d71565b5090565b828054600181600116156101000203166002900490600052602060002090601f016020900481019282601f10611d2d57803560ff1916838001178555611d60565b82800160010185558215611d60579182015b82811115611d5f5782358260005090905591602001919060010190611d3f565b5b509050611d6d9190611d71565b5090565b611d999190611d7b565b80821115611d955760008181506000905550600101611d7b565b5090565b9056fe526f6c65733a206163636f756e7420646f6573206e6f74206861766520726f6c65526f6c65733a206163636f756e7420697320746865207a65726f2061646472657373436f6e747261637420696e7374616e63652068617320616c7265616479206265656e20696e697469616c697a656457686974656c69737441646d696e526f6c653a2063616c6c657220646f6573206e6f742068617665207468652057686974656c69737441646d696e20726f6c65a265627a7a72315820c1d3313f0bf1b66d92715da51c5030395cda26fe7ea66f1d35508947cefe281264736f6c634300050c0032436f6e747261637420696e7374616e63652068617320616c7265616479206265656e20696e697469616c697a6564a265627a7a72315820f6a213590cd3d75cbbfd42d42cd6ac18cc56d6cb3d2f771d594fdb9df2702b7364736f6c634300050c0032",
  "compiler": {
    "name": "solc",
    "version": "0.5.12+commit.7709ece9.Darwin.appleclang",
    "optimizer": {},
    "evmVersion": "constantinople"
  }
}