{
  "fileName": "KeyData.sol",
  "contractName": "KeyData",
  "source": "pragma solidity ^0.5.4;\n\nimport \"@openzeppelin/contracts-ethereum-package/contracts/access/roles/WhitelistAdminRole.sol\";\nimport \"@openzeppelin/contracts-ethereum-package/contracts/access/roles/WhitelistedRole.sol\";\n\ncontract KeyData is WhitelistAdminRole, WhitelistedRole {\n    mapping(bytes32 => bytes) store;\n\n    event DataChanged(bytes32 indexed key, bytes value);\n\n    function getData(bytes32 _key) external view returns (bytes memory _value) {\n        return store[_key];\n    }\n\n    function setData(bytes32 _key, bytes calldata _value) external onlyWhitelistAdmin() {\n        store[_key] = _value;\n        emit DataChanged(_key, _value);\n    }\n\n}\n",
  "sourcePath": "contracts/KeyData.sol",
  "abi": [
    {
      "anonymous": false,
      "inputs": [
        {
          "indexed": true,
          "internalType": "bytes32",
          "name": "key",
          "type": "bytes32"
        },
        {
          "indexed": false,
          "internalType": "bytes",
          "name": "value",
          "type": "bytes"
        }
      ],
      "name": "DataChanged",
      "type": "event"
    },
    {
      "anonymous": false,
      "inputs": [
        {
          "indexed": true,
          "internalType": "address",
          "name": "account",
          "type": "address"
        }
      ],
      "name": "WhitelistAdminAdded",
      "type": "event"
    },
    {
      "anonymous": false,
      "inputs": [
        {
          "indexed": true,
          "internalType": "address",
          "name": "account",
          "type": "address"
        }
      ],
      "name": "WhitelistAdminRemoved",
      "type": "event"
    },
    {
      "anonymous": false,
      "inputs": [
        {
          "indexed": true,
          "internalType": "address",
          "name": "account",
          "type": "address"
        }
      ],
      "name": "WhitelistedAdded",
      "type": "event"
    },
    {
      "anonymous": false,
      "inputs": [
        {
          "indexed": true,
          "internalType": "address",
          "name": "account",
          "type": "address"
        }
      ],
      "name": "WhitelistedRemoved",
      "type": "event"
    },
    {
      "constant": false,
      "inputs": [
        {
          "internalType": "address",
          "name": "account",
          "type": "address"
        }
      ],
      "name": "addWhitelistAdmin",
      "outputs": [],
      "payable": false,
      "stateMutability": "nonpayable",
      "type": "function"
    },
    {
      "constant": false,
      "inputs": [
        {
          "internalType": "address",
          "name": "account",
          "type": "address"
        }
      ],
      "name": "addWhitelisted",
      "outputs": [],
      "payable": false,
      "stateMutability": "nonpayable",
      "type": "function"
    },
    {
      "constant": true,
      "inputs": [
        {
          "internalType": "bytes32",
          "name": "_key",
          "type": "bytes32"
        }
      ],
      "name": "getData",
      "outputs": [
        {
          "internalType": "bytes",
          "name": "_value",
          "type": "bytes"
        }
      ],
      "payable": false,
      "stateMutability": "view",
      "type": "function"
    },
    {
      "constant": false,
      "inputs": [
        {
          "internalType": "address",
          "name": "sender",
          "type": "address"
        }
      ],
      "name": "initialize",
      "outputs": [],
      "payable": false,
      "stateMutability": "nonpayable",
      "type": "function"
    },
    {
      "constant": true,
      "inputs": [
        {
          "internalType": "address",
          "name": "account",
          "type": "address"
        }
      ],
      "name": "isWhitelistAdmin",
      "outputs": [
        {
          "internalType": "bool",
          "name": "",
          "type": "bool"
        }
      ],
      "payable": false,
      "stateMutability": "view",
      "type": "function"
    },
    {
      "constant": true,
      "inputs": [
        {
          "internalType": "address",
          "name": "account",
          "type": "address"
        }
      ],
      "name": "isWhitelisted",
      "outputs": [
        {
          "internalType": "bool",
          "name": "",
          "type": "bool"
        }
      ],
      "payable": false,
      "stateMutability": "view",
      "type": "function"
    },
    {
      "constant": false,
      "inputs": [
        {
          "internalType": "address",
          "name": "account",
          "type": "address"
        }
      ],
      "name": "removeWhitelisted",
      "outputs": [],
      "payable": false,
      "stateMutability": "nonpayable",
      "type": "function"
    },
    {
      "constant": false,
      "inputs": [],
      "name": "renounceWhitelistAdmin",
      "outputs": [],
      "payable": false,
      "stateMutability": "nonpayable",
      "type": "function"
    },
    {
      "constant": false,
      "inputs": [],
      "name": "renounceWhitelisted",
      "outputs": [],
      "payable": false,
      "stateMutability": "nonpayable",
      "type": "function"
    },
    {
      "constant": false,
      "inputs": [
        {
          "internalType": "bytes32",
          "name": "_key",
          "type": "bytes32"
        },
        {
          "internalType": "bytes",
          "name": "_value",
          "type": "bytes"
        }
      ],
      "name": "setData",
      "outputs": [],
      "payable": false,
      "stateMutability": "nonpayable",
      "type": "function"
    }
  ],
  "bytecode": "0x60806040525b5b61000b565b610fdc8061001a6000396000f3fe60806040523480156100115760006000fd5b50600436106100a35760003560e01c80637362d9c8116100675780637362d9c8146102475780637f23690c1461028c578063bb5f747b14610319578063c4d66de814610376578063d6cd9473146103bb576100a3565b806310154bad146100a9578063291d9549146100ee5780633af32abf146101335780634c5a628c1461019057806354f6127f1461019a576100a3565b60006000fd5b6100ec600480360360208110156100c05760006000fd5b81019080803573ffffffffffffffffffffffffffffffffffffffff1690602001909291905050506103c5565b005b610131600480360360208110156101055760006000fd5b81019080803573ffffffffffffffffffffffffffffffffffffffff16906020019092919050505061044c565b005b6101766004803603602081101561014a5760006000fd5b81019080803573ffffffffffffffffffffffffffffffffffffffff1690602001909291905050506104d3565b604051808215151515815260200191505060405180910390f35b6101986104f8565b005b6101cb600480360360208110156101b15760006000fd5b810190808035600019169060200190929190505050610517565b6040518080602001828103825283818151815260200191508051906020019080838360005b8381101561020c5780820151818401525b6020810190506101f0565b50505050905090810190601f1680156102395780820380516001836020036101000a031916815260200191505b509250505060405180910390f35b61028a6004803603602081101561025e5760006000fd5b81019080803573ffffffffffffffffffffffffffffffffffffffff1690602001909291905050506105df565b005b610317600480360360408110156102a35760006000fd5b810190808035600019169060200190929190803590602001906401000000008111156102cf5760006000fd5b8201836020820111156102e25760006000fd5b803590602001918460018302840111640100000000831117156103055760006000fd5b90919293909091929390505050610666565b005b61035c600480360360208110156103305760006000fd5b81019080803573ffffffffffffffffffffffffffffffffffffffff169060200190929190505050610779565b604051808215151515815260200191505060405180910390f35b6103b96004803603602081101561038d5760006000fd5b81019080803573ffffffffffffffffffffffffffffffffffffffff16906020019092919050505061079e565b005b6103c36108bb565b005b6103e16103d66108da63ffffffff16565b61077963ffffffff16565b1515610438576040517f08c379a0000000000000000000000000000000000000000000000000000000008152600401808060200182810382526040815260200180610f686040913960400191505060405180910390fd5b610447816108e763ffffffff16565b5b5b50565b61046861045d6108da63ffffffff16565b61077963ffffffff16565b15156104bf576040517f08c379a0000000000000000000000000000000000000000000000000000000008152600401808060200182810382526040815260200180610f686040913960400191505060405180910390fd5b6104ce8161094563ffffffff16565b5b5b50565b60006104ec8260666000506109a390919063ffffffff16565b90506104f3565b919050565b6105146105096108da63ffffffff16565b610a8c63ffffffff16565b5b565b60606099600050600083600019166000191681526020019081526020016000206000508054600181600116156101000203166002900480601f0160208091040260200160405190810160405280929190818152602001828054600181600116156101000203166002900480156105ce5780601f106105a3576101008083540402835291602001916105ce565b820191906000526020600020905b8154815290600101906020018083116105b157829003601f168201915b505050505090506105da565b919050565b6105fb6105f06108da63ffffffff16565b61077963ffffffff16565b1515610652576040517f08c379a0000000000000000000000000000000000000000000000000000000008152600401808060200182810382526040815260200180610f686040913960400191505060405180910390fd5b61066181610aea63ffffffff16565b5b5b50565b6106826106776108da63ffffffff16565b61077963ffffffff16565b15156106d9576040517f08c379a0000000000000000000000000000000000000000000000000000000008152600401808060200182810382526040815260200180610f686040913960400191505060405180910390fd5b81816099600050600086600019166000191681526020019081526020016000206000509190610709929190610e46565b5082600019167fece574603820d07bc9b91f2a932baadf4628aabcb8afba49776529c14a6104b2838360405180806020018281038252848482818152602001925080828437600081840152601f19601f820116905080830192505050935050505060405180910390a25b5b505050565b60006107928260336000506109a390919063ffffffff16565b9050610799565b919050565b600060019054906101000a900460ff16806107c357506107c2610b4863ffffffff16565b5b806107db5750600060009054906101000a900460ff16155b1515610832576040517f08c379a000000000000000000000000000000000000000000000000000000000815260040180806020018281038252602e815260200180610f3a602e913960400191505060405180910390fd5b6000600060019054906101000a900460ff161590508015610884576001600060016101000a81548160ff0219169083151502179055506001600060006101000a81548160ff0219169083151502179055505b61089382610b6063ffffffff16565b5b80156108b6576000600060016101000a81548160ff0219169083151502179055505b505b50565b6108d76108cc6108da63ffffffff16565b61094563ffffffff16565b5b565b60003390506108e4565b90565b6108fe816066600050610c9390919063ffffffff16565b8073ffffffffffffffffffffffffffffffffffffffff167fee1504a83b6d4a361f4c1dc78ab59bfa30d6a3b6612c403e86bb01ef2984295f60405160405180910390a25b50565b61095c816066600050610d7d90919063ffffffff16565b8073ffffffffffffffffffffffffffffffffffffffff167f270d9b30cf5b0793bbfd54c9d5b94aeb49462b8148399000265144a8722da6b660405160405180910390a25b50565b6000600073ffffffffffffffffffffffffffffffffffffffff168273ffffffffffffffffffffffffffffffffffffffff1614151515610a2d576040517f08c379a0000000000000000000000000000000000000000000000000000000008152600401808060200182810382526022815260200180610f186022913960400191505060405180910390fd5b8260000160005060008373ffffffffffffffffffffffffffffffffffffffff1673ffffffffffffffffffffffffffffffffffffffff16815260200190815260200160002060009054906101000a900460ff169050610a86565b92915050565b610aa3816033600050610d7d90919063ffffffff16565b8073ffffffffffffffffffffffffffffffffffffffff167f0a8eb35e5ca14b3d6f28e4abf2f128dbab231a58b56e89beb5d636115001e16560405160405180910390a25b50565b610b01816033600050610c9390919063ffffffff16565b8073ffffffffffffffffffffffffffffffffffffffff167f22380c05984257a1cb900161c713dd71d39e74820f1aea43bd3f1bdd2096129960405160405180910390a25b50565b60006000303b905060008114915050610b5d56505b90565b600060019054906101000a900460ff1680610b855750610b84610b4863ffffffff16565b5b80610b9d5750600060009054906101000a900460ff16155b1515610bf4576040517f08c379a000000000000000000000000000000000000000000000000000000000815260040180806020018281038252602e815260200180610f3a602e913960400191505060405180910390fd5b6000600060019054906101000a900460ff161590508015610c46576001600060016101000a81548160ff0219169083151502179055506001600060006101000a81548160ff0219169083151502179055505b610c558261077963ffffffff16565b1515610c6b57610c6a82610aea63ffffffff16565b5b5b8015610c8e576000600060016101000a81548160ff0219169083151502179055505b505b50565b610ca382826109a363ffffffff16565b151515610d1b576040517f08c379a000000000000000000000000000000000000000000000000000000000815260040180806020018281038252601f8152602001807f526f6c65733a206163636f756e7420616c72656164792068617320726f6c650081526020015060200191505060405180910390fd5b60018260000160005060008373ffffffffffffffffffffffffffffffffffffffff1673ffffffffffffffffffffffffffffffffffffffff16815260200190815260200160002060006101000a81548160ff0219169083151502179055505b5050565b610d8d82826109a363ffffffff16565b1515610de4576040517f08c379a0000000000000000000000000000000000000000000000000000000008152600401808060200182810382526021815260200180610ef76021913960400191505060405180910390fd5b60008260000160005060008373ffffffffffffffffffffffffffffffffffffffff1673ffffffffffffffffffffffffffffffffffffffff16815260200190815260200160002060006101000a81548160ff0219169083151502179055505b5050565b828054600181600116156101000203166002900490600052602060002090601f016020900481019282601f10610e8757803560ff1916838001178555610eba565b82800160010185558215610eba579182015b82811115610eb95782358260005090905591602001919060010190610e99565b5b509050610ec79190610ecb565b5090565b610ef39190610ed5565b80821115610eef5760008181506000905550600101610ed5565b5090565b9056fe526f6c65733a206163636f756e7420646f6573206e6f74206861766520726f6c65526f6c65733a206163636f756e7420697320746865207a65726f2061646472657373436f6e747261637420696e7374616e63652068617320616c7265616479206265656e20696e697469616c697a656457686974656c69737441646d696e526f6c653a2063616c6c657220646f6573206e6f742068617665207468652057686974656c69737441646d696e20726f6c65a265627a7a72315820efdad1dee50006fd60d55b15206c6c6c1cba060d510167149ae7501557279c4e64736f6c634300050c0032",
  "compiler": {
    "name": "solc",
    "version": "0.5.12+commit.7709ece9.Darwin.appleclang",
    "optimizer": {},
    "evmVersion": "constantinople"
  }
}