{
  "fileName": "Metadata.sol",
  "contractName": "Metadata",
  "source": "pragma solidity ^0.5.4;\npragma experimental ABIEncoderV2;\n\nimport \"@openzeppelin/contracts-ethereum-package/contracts/access/roles/WhitelistAdminRole.sol\";\nimport \"@openzeppelin/contracts-ethereum-package/contracts/access/roles/WhitelistedRole.sol\";\nimport \"@openzeppelin/contracts-ethereum-package/contracts/drafts/Counters.sol\";\n\ncontract Metadata is WhitelistAdminRole, WhitelistedRole {\n    using Counters for Counters.Counter;\n    Counters.Counter public metadataCount;\n\n    string[] public metadata;\n\n    event metadataAdded(address identity, string metadata, uint256 index);\n\n    function addIdMetadata(string calldata _metadata) external onlyWhitelistAdmin() {\n        metadata.push(_metadata);\n        emit metadataAdded(address(this), _metadata, metadataCount.current());\n        metadataCount.increment();\n    }\n\n    function getTotalMetadata() public view returns (uint256) {\n        return metadataCount.current();\n    }\n\n    function getSingleIdMetaData(uint256 _index) external returns (string memory item) {\n        require(_index <= metadata.length, \"Metadata record does not exist\");\n        return metadata[_index];\n    }\n}\n",
  "sourcePath": "contracts/Metadata.sol",
  "abi": [
    {
      "anonymous": false,
      "inputs": [
        {
          "indexed": true,
          "internalType": "address",
          "name": "account",
          "type": "address"
        }
      ],
      "name": "WhitelistAdminAdded",
      "type": "event"
    },
    {
      "anonymous": false,
      "inputs": [
        {
          "indexed": true,
          "internalType": "address",
          "name": "account",
          "type": "address"
        }
      ],
      "name": "WhitelistAdminRemoved",
      "type": "event"
    },
    {
      "anonymous": false,
      "inputs": [
        {
          "indexed": true,
          "internalType": "address",
          "name": "account",
          "type": "address"
        }
      ],
      "name": "WhitelistedAdded",
      "type": "event"
    },
    {
      "anonymous": false,
      "inputs": [
        {
          "indexed": true,
          "internalType": "address",
          "name": "account",
          "type": "address"
        }
      ],
      "name": "WhitelistedRemoved",
      "type": "event"
    },
    {
      "anonymous": false,
      "inputs": [
        {
          "indexed": false,
          "internalType": "address",
          "name": "identity",
          "type": "address"
        },
        {
          "indexed": false,
          "internalType": "string",
          "name": "metadata",
          "type": "string"
        },
        {
          "indexed": false,
          "internalType": "uint256",
          "name": "index",
          "type": "uint256"
        }
      ],
      "name": "metadataAdded",
      "type": "event"
    },
    {
      "constant": false,
      "inputs": [
        {
          "internalType": "string",
          "name": "_metadata",
          "type": "string"
        }
      ],
      "name": "addIdMetadata",
      "outputs": [],
      "payable": false,
      "stateMutability": "nonpayable",
      "type": "function"
    },
    {
      "constant": false,
      "inputs": [
        {
          "internalType": "address",
          "name": "account",
          "type": "address"
        }
      ],
      "name": "addWhitelistAdmin",
      "outputs": [],
      "payable": false,
      "stateMutability": "nonpayable",
      "type": "function"
    },
    {
      "constant": false,
      "inputs": [
        {
          "internalType": "address",
          "name": "account",
          "type": "address"
        }
      ],
      "name": "addWhitelisted",
      "outputs": [],
      "payable": false,
      "stateMutability": "nonpayable",
      "type": "function"
    },
    {
      "constant": false,
      "inputs": [
        {
          "internalType": "uint256",
          "name": "_index",
          "type": "uint256"
        }
      ],
      "name": "getSingleIdMetaData",
      "outputs": [
        {
          "internalType": "string",
          "name": "item",
          "type": "string"
        }
      ],
      "payable": false,
      "stateMutability": "nonpayable",
      "type": "function"
    },
    {
      "constant": true,
      "inputs": [],
      "name": "getTotalMetadata",
      "outputs": [
        {
          "internalType": "uint256",
          "name": "",
          "type": "uint256"
        }
      ],
      "payable": false,
      "stateMutability": "view",
      "type": "function"
    },
    {
      "constant": false,
      "inputs": [
        {
          "internalType": "address",
          "name": "sender",
          "type": "address"
        }
      ],
      "name": "initialize",
      "outputs": [],
      "payable": false,
      "stateMutability": "nonpayable",
      "type": "function"
    },
    {
      "constant": true,
      "inputs": [
        {
          "internalType": "address",
          "name": "account",
          "type": "address"
        }
      ],
      "name": "isWhitelistAdmin",
      "outputs": [
        {
          "internalType": "bool",
          "name": "",
          "type": "bool"
        }
      ],
      "payable": false,
      "stateMutability": "view",
      "type": "function"
    },
    {
      "constant": true,
      "inputs": [
        {
          "internalType": "address",
          "name": "account",
          "type": "address"
        }
      ],
      "name": "isWhitelisted",
      "outputs": [
        {
          "internalType": "bool",
          "name": "",
          "type": "bool"
        }
      ],
      "payable": false,
      "stateMutability": "view",
      "type": "function"
    },
    {
      "constant": true,
      "inputs": [
        {
          "internalType": "uint256",
          "name": "",
          "type": "uint256"
        }
      ],
      "name": "metadata",
      "outputs": [
        {
          "internalType": "string",
          "name": "",
          "type": "string"
        }
      ],
      "payable": false,
      "stateMutability": "view",
      "type": "function"
    },
    {
      "constant": true,
      "inputs": [],
      "name": "metadataCount",
      "outputs": [
        {
          "internalType": "uint256",
          "name": "_value",
          "type": "uint256"
        }
      ],
      "payable": false,
      "stateMutability": "view",
      "type": "function"
    },
    {
      "constant": false,
      "inputs": [
        {
          "internalType": "address",
          "name": "account",
          "type": "address"
        }
      ],
      "name": "removeWhitelisted",
      "outputs": [],
      "payable": false,
      "stateMutability": "nonpayable",
      "type": "function"
    },
    {
      "constant": false,
      "inputs": [],
      "name": "renounceWhitelistAdmin",
      "outputs": [],
      "payable": false,
      "stateMutability": "nonpayable",
      "type": "function"
    },
    {
      "constant": false,
      "inputs": [],
      "name": "renounceWhitelisted",
      "outputs": [],
      "payable": false,
      "stateMutability": "nonpayable",
      "type": "function"
    }
  ],
  "bytecode": "0x60806040525b5b61000b565b6114f88061001a6000396000f3fe60806040523480156100115760006000fd5b50600436106100d45760003560e01c8063bb5f747b1161008d578063d6cd947311610067578063d6cd9473146101ee578063e3684e39146101f8578063e8c15d5214610228578063f463abac14610246576100d4565b8063bb5f747b14610186578063c4d66de8146101b6578063d3e240e1146101d2576100d4565b806310154bad146100da578063291d9549146100f6578063342afb7e146101125780633af32abf146101305780634c5a628c146101605780637362d9c81461016a576100d4565b60006000fd5b6100f460048036036100ef9190810190610ec3565b610276565b005b610110600480360361010b9190810190610ec3565b6102e7565b005b61011a610358565b60405161012791906113a2565b60405180910390f35b61014a60048036036101459190810190610ec3565b61036a565b6040516101579190611283565b60405180910390f35b61016861038f565b005b610184600480360361017f9190810190610ec3565b6103ae565b005b6101a0600480360361019b9190810190610ec3565b61041f565b6040516101ad9190611283565b60405180910390f35b6101d060048036036101cb9190810190610ec3565b610444565b005b6101ec60048036036101e79190810190610eed565b61054b565b005b6101f661065b565b005b610212600480360361020d9190810190610f35565b61067a565b60405161021f919061129e565b60405180910390f35b61023061073a565b60405161023d91906113a2565b60405180910390f35b610260600480360361025b9190810190610f35565b61075b565b60405161026d91906112c0565b60405180910390f35b61029261028761087063ffffffff16565b61041f63ffffffff16565b15156102d3576040517f08c379a00000000000000000000000000000000000000000000000000000000081526004016102ca90611362565b60405180910390fd5b6102e28161087d63ffffffff16565b5b5b50565b6103036102f861087063ffffffff16565b61041f63ffffffff16565b1515610344576040517f08c379a000000000000000000000000000000000000000000000000000000000815260040161033b90611362565b60405180910390fd5b610353816108db63ffffffff16565b5b5b50565b60996000508060000160005054905081565b600061038382606660005061093990919063ffffffff16565b905061038a565b919050565b6103ab6103a061087063ffffffff16565b610a0c63ffffffff16565b5b565b6103ca6103bf61087063ffffffff16565b61041f63ffffffff16565b151561040b576040517f08c379a000000000000000000000000000000000000000000000000000000000815260040161040290611362565b60405180910390fd5b61041a81610a6a63ffffffff16565b5b5b50565b600061043882603360005061093990919063ffffffff16565b905061043f565b919050565b600060019054906101000a900460ff16806104695750610468610ac863ffffffff16565b5b806104815750600060009054906101000a900460ff16155b15156104c2576040517f08c379a00000000000000000000000000000000000000000000000000000000081526004016104b990611342565b60405180910390fd5b6000600060019054906101000a900460ff161590508015610514576001600060016101000a81548160ff0219169083151502179055506001600060006101000a81548160ff0219169083151502179055505b61052382610ae063ffffffff16565b5b8015610546576000600060016101000a81548160ff0219169083151502179055505b505b50565b61056761055c61087063ffffffff16565b61041f63ffffffff16565b15156105a8576040517f08c379a000000000000000000000000000000000000000000000000000000000815260040161059f90611362565b60405180910390fd5b609a60005082829091806001815401808255809150509060018203906000526020600020900160005b90919293909192939091929091925091906105ed929190610d95565b50507fea4b4f247d37e31b9df3f1307131b74ca20ac139e9c712389e2ecba3c2b285a43083836106286099600050610bfd909063ffffffff16565b6040516106389493929190611243565b60405180910390a16106556099600050610c13909063ffffffff16565b5b5b5050565b61067761066c61087063ffffffff16565b6108db63ffffffff16565b5b565b609a6000508181548110151561068c57fe5b906000526020600020900160005b915090508054600181600116156101000203166002900480601f0160208091040260200160405190810160405280929190818152602001828054600181600116156101000203166002900480156107325780601f1061070757610100808354040283529160200191610732565b820191906000526020600020905b81548152906001019060200180831161071557829003601f168201915b505050505081565b60006107516099600050610bfd909063ffffffff16565b9050610758565b90565b6060609a6000508054905082111515156107aa576040517f08c379a00000000000000000000000000000000000000000000000000000000081526004016107a190611382565b60405180910390fd5b609a600050828154811015156107bc57fe5b906000526020600020900160005b508054600181600116156101000203166002900480601f01602080910402602001604051908101604052809291908181526020018280546001816001161561010002031660029004801561085f5780601f106108345761010080835404028352916020019161085f565b820191906000526020600020905b81548152906001019060200180831161084257829003601f168201915b5050505050905061086b565b919050565b600033905061087a565b90565b610894816066600050610c2e90919063ffffffff16565b8073ffffffffffffffffffffffffffffffffffffffff167fee1504a83b6d4a361f4c1dc78ab59bfa30d6a3b6612c403e86bb01ef2984295f60405160405180910390a25b50565b6108f2816066600050610ce290919063ffffffff16565b8073ffffffffffffffffffffffffffffffffffffffff167f270d9b30cf5b0793bbfd54c9d5b94aeb49462b8148399000265144a8722da6b660405160405180910390a25b50565b6000600073ffffffffffffffffffffffffffffffffffffffff168273ffffffffffffffffffffffffffffffffffffffff16141515156109ad576040517f08c379a00000000000000000000000000000000000000000000000000000000081526004016109a490611322565b60405180910390fd5b8260000160005060008373ffffffffffffffffffffffffffffffffffffffff1673ffffffffffffffffffffffffffffffffffffffff16815260200190815260200160002060009054906101000a900460ff169050610a06565b92915050565b610a23816033600050610ce290919063ffffffff16565b8073ffffffffffffffffffffffffffffffffffffffff167f0a8eb35e5ca14b3d6f28e4abf2f128dbab231a58b56e89beb5d636115001e16560405160405180910390a25b50565b610a81816033600050610c2e90919063ffffffff16565b8073ffffffffffffffffffffffffffffffffffffffff167f22380c05984257a1cb900161c713dd71d39e74820f1aea43bd3f1bdd2096129960405160405180910390a25b50565b60006000303b905060008114915050610add56505b90565b600060019054906101000a900460ff1680610b055750610b04610ac863ffffffff16565b5b80610b1d5750600060009054906101000a900460ff16155b1515610b5e576040517f08c379a0000000000000000000000000000000000000000000000000000000008152600401610b5590611342565b60405180910390fd5b6000600060019054906101000a900460ff161590508015610bb0576001600060016101000a81548160ff0219169083151502179055506001600060006101000a81548160ff0219169083151502179055505b610bbf8261041f63ffffffff16565b1515610bd557610bd482610a6a63ffffffff16565b5b5b8015610bf8576000600060016101000a81548160ff0219169083151502179055505b505b50565b600081600001600050549050610c0e565b919050565b60018160000160008282825054019250508190909055505b50565b610c3e828261093963ffffffff16565b151515610c80576040517f08c379a0000000000000000000000000000000000000000000000000000000008152600401610c77906112e2565b60405180910390fd5b60018260000160005060008373ffffffffffffffffffffffffffffffffffffffff1673ffffffffffffffffffffffffffffffffffffffff16815260200190815260200160002060006101000a81548160ff0219169083151502179055505b5050565b610cf2828261093963ffffffff16565b1515610d33576040517f08c379a0000000000000000000000000000000000000000000000000000000008152600401610d2a90611302565b60405180910390fd5b60008260000160005060008373ffffffffffffffffffffffffffffffffffffffff1673ffffffffffffffffffffffffffffffffffffffff16815260200190815260200160002060006101000a81548160ff0219169083151502179055505b5050565b828054600181600116156101000203166002900490600052602060002090601f016020900481019282601f10610dd657803560ff1916838001178555610e09565b82800160010185558215610e09579182015b82811115610e085782358260005090905591602001919060010190610de8565b5b509050610e169190610e1a565b5090565b610e429190610e24565b80821115610e3e5760008181506000905550600101610e24565b5090565b90566114b4565b600081359050610e5881611480565b92915050565b6000600083601f8401121515610e745760006000fd5b8235905067ffffffffffffffff811115610e8e5760006000fd5b602083019150836001820283011115610ea75760006000fd5b9250929050565b600081359050610ebd8161149a565b92915050565b600060208284031215610ed65760006000fd5b6000610ee484828501610e49565b91505092915050565b6000600060208385031215610f025760006000fd5b600083013567ffffffffffffffff811115610f1d5760006000fd5b610f2985828601610e5e565b92509250509250929050565b600060208284031215610f485760006000fd5b6000610f5684828501610eae565b91505092915050565b610f68816113e4565b82525050565b610f77816113f6565b82525050565b6000610f8983856113d3565b9350610f9683858461142c565b610f9f8361146f565b840190509392505050565b6000610fb5826113c8565b610fbf81856113d3565b9350610fcf81856020860161143b565b610fd88161146f565b840191505092915050565b6000610fee826113bd565b610ff881856113d3565b935061100881856020860161143b565b6110118161146f565b840191505092915050565b6000611029601f836113d3565b91507f526f6c65733a206163636f756e7420616c72656164792068617320726f6c65006000830152602082019050919050565b60006110696021836113d3565b91507f526f6c65733a206163636f756e7420646f6573206e6f74206861766520726f6c60008301527f65000000000000000000000000000000000000000000000000000000000000006020830152604082019050919050565b60006110cf6022836113d3565b91507f526f6c65733a206163636f756e7420697320746865207a65726f20616464726560008301527f73730000000000000000000000000000000000000000000000000000000000006020830152604082019050919050565b6000611135602e836113d3565b91507f436f6e747261637420696e7374616e63652068617320616c726561647920626560008301527f656e20696e697469616c697a65640000000000000000000000000000000000006020830152604082019050919050565b600061119b6040836113d3565b91507f57686974656c69737441646d696e526f6c653a2063616c6c657220646f65732060008301527f6e6f742068617665207468652057686974656c69737441646d696e20726f6c656020830152604082019050919050565b6000611201601e836113d3565b91507f4d65746164617461207265636f726420646f6573206e6f7420657869737400006000830152602082019050919050565b61123d81611422565b82525050565b60006060820190506112586000830187610f5f565b818103602083015261126b818587610f7d565b905061127a6040830184611234565b95945050505050565b60006020820190506112986000830184610f6e565b92915050565b600060208201905081810360008301526112b88184610fe3565b905092915050565b600060208201905081810360008301526112da8184610faa565b905092915050565b600060208201905081810360008301526112fb8161101c565b9050919050565b6000602082019050818103600083015261131b8161105c565b9050919050565b6000602082019050818103600083015261133b816110c2565b9050919050565b6000602082019050818103600083015261135b81611128565b9050919050565b6000602082019050818103600083015261137b8161118e565b9050919050565b6000602082019050818103600083015261139b816111f4565b9050919050565b60006020820190506113b76000830184611234565b92915050565b600081519050919050565b600081519050919050565b600082825260208201905092915050565b60006113ef82611402565b9050919050565b60008115159050919050565b600073ffffffffffffffffffffffffffffffffffffffff82169050919050565b6000819050919050565b82818337600083830152505050565b60005b8381101561145a5780820151818401525b60208101905061143e565b83811115611469576000848401525b50505050565b6000601f19601f8301169050919050565b611489816113e4565b811415156114975760006000fd5b50565b6114a381611422565b811415156114b15760006000fd5b50565bfea365627a7a72315820d47e9234a11cfdf427d5049afc90f9064a3d47923aa9842291e3fe8d8d8a798c6c6578706572696d656e74616cf564736f6c634300050c0040",
  "compiler": {
    "name": "solc",
    "version": "0.5.12+commit.7709ece9.Darwin.appleclang",
    "optimizer": {},
    "evmVersion": "constantinople"
  }
}