{
  "fileName": "WhitelistAdminRole.sol",
  "contractName": "WhitelistAdminRole",
  "source": "pragma solidity ^0.5.0;\n\nimport \"@openzeppelin/upgrades/contracts/Initializable.sol\";\n\nimport \"../../GSN/Context.sol\";\nimport \"../Roles.sol\";\n\n/**\n * @title WhitelistAdminRole\n * @dev WhitelistAdmins are responsible for assigning and removing Whitelisted accounts.\n */\ncontract WhitelistAdminRole is Initializable, Context {\n    using Roles for Roles.Role;\n\n    event WhitelistAdminAdded(address indexed account);\n    event WhitelistAdminRemoved(address indexed account);\n\n    Roles.Role private _whitelistAdmins;\n\n    function initialize(address sender) public initializer {\n        if (!isWhitelistAdmin(sender)) {\n            _addWhitelistAdmin(sender);\n        }\n    }\n\n    modifier onlyWhitelistAdmin() {\n        require(isWhitelistAdmin(_msgSender()), \"WhitelistAdminRole: caller does not have the WhitelistAdmin role\");\n        _;\n    }\n\n    function isWhitelistAdmin(address account) public view returns (bool) {\n        return _whitelistAdmins.has(account);\n    }\n\n    function addWhitelistAdmin(address account) public onlyWhitelistAdmin {\n        _addWhitelistAdmin(account);\n    }\n\n    function renounceWhitelistAdmin() public {\n        _removeWhitelistAdmin(_msgSender());\n    }\n\n    function _addWhitelistAdmin(address account) internal {\n        _whitelistAdmins.add(account);\n        emit WhitelistAdminAdded(account);\n    }\n\n    function _removeWhitelistAdmin(address account) internal {\n        _whitelistAdmins.remove(account);\n        emit WhitelistAdminRemoved(account);\n    }\n\n    uint256[50] private ______gap;\n}\n",
  "sourcePath": "@openzeppelin/contracts-ethereum-package/contracts/access/roles/WhitelistAdminRole.sol",
  "abi": [
    {
      "anonymous": false,
      "inputs": [
        {
          "indexed": true,
          "internalType": "address",
          "name": "account",
          "type": "address"
        }
      ],
      "name": "WhitelistAdminAdded",
      "type": "event"
    },
    {
      "anonymous": false,
      "inputs": [
        {
          "indexed": true,
          "internalType": "address",
          "name": "account",
          "type": "address"
        }
      ],
      "name": "WhitelistAdminRemoved",
      "type": "event"
    },
    {
      "constant": false,
      "inputs": [
        {
          "internalType": "address",
          "name": "account",
          "type": "address"
        }
      ],
      "name": "addWhitelistAdmin",
      "outputs": [],
      "payable": false,
      "stateMutability": "nonpayable",
      "type": "function"
    },
    {
      "constant": false,
      "inputs": [
        {
          "internalType": "address",
          "name": "sender",
          "type": "address"
        }
      ],
      "name": "initialize",
      "outputs": [],
      "payable": false,
      "stateMutability": "nonpayable",
      "type": "function"
    },
    {
      "constant": true,
      "inputs": [
        {
          "internalType": "address",
          "name": "account",
          "type": "address"
        }
      ],
      "name": "isWhitelistAdmin",
      "outputs": [
        {
          "internalType": "bool",
          "name": "",
          "type": "bool"
        }
      ],
      "payable": false,
      "stateMutability": "view",
      "type": "function"
    },
    {
      "constant": false,
      "inputs": [],
      "name": "renounceWhitelistAdmin",
      "outputs": [],
      "payable": false,
      "stateMutability": "nonpayable",
      "type": "function"
    }
  ],
  "bytecode": "0x60806040525b5b61000b565b6107a98061001a6000396000f3fe60806040523480156100115760006000fd5b50600436106100515760003560e01c80634c5a628c146100575780637362d9c814610061578063bb5f747b146100a6578063c4d66de81461010357610051565b60006000fd5b61005f610148565b005b6100a4600480360360208110156100785760006000fd5b81019080803573ffffffffffffffffffffffffffffffffffffffff169060200190929190505050610167565b005b6100e9600480360360208110156100bd5760006000fd5b81019080803573ffffffffffffffffffffffffffffffffffffffff1690602001909291905050506101ee565b604051808215151515815260200191505060405180910390f35b6101466004803603602081101561011a5760006000fd5b81019080803573ffffffffffffffffffffffffffffffffffffffff169060200190929190505050610213565b005b61016461015961034663ffffffff16565b61035363ffffffff16565b5b565b61018361017861034663ffffffff16565b6101ee63ffffffff16565b15156101da576040517f08c379a00000000000000000000000000000000000000000000000000000000081526004018080602001828103825260408152602001806107356040913960400191505060405180910390fd5b6101e9816103b163ffffffff16565b5b5b50565b600061020782603360005061040f90919063ffffffff16565b905061020e565b919050565b600060019054906101000a900460ff168061023857506102376104f863ffffffff16565b5b806102505750600060009054906101000a900460ff16155b15156102a7576040517f08c379a000000000000000000000000000000000000000000000000000000000815260040180806020018281038252602e815260200180610707602e913960400191505060405180910390fd5b6000600060019054906101000a900460ff1615905080156102f9576001600060016101000a81548160ff0219169083151502179055506001600060006101000a81548160ff0219169083151502179055505b610308826101ee63ffffffff16565b151561031e5761031d826103b163ffffffff16565b5b5b8015610341576000600060016101000a81548160ff0219169083151502179055505b505b50565b6000339050610350565b90565b61036a81603360005061051090919063ffffffff16565b8073ffffffffffffffffffffffffffffffffffffffff167f0a8eb35e5ca14b3d6f28e4abf2f128dbab231a58b56e89beb5d636115001e16560405160405180910390a25b50565b6103c88160336000506105d990919063ffffffff16565b8073ffffffffffffffffffffffffffffffffffffffff167f22380c05984257a1cb900161c713dd71d39e74820f1aea43bd3f1bdd2096129960405160405180910390a25b50565b6000600073ffffffffffffffffffffffffffffffffffffffff168273ffffffffffffffffffffffffffffffffffffffff1614151515610499576040517f08c379a00000000000000000000000000000000000000000000000000000000081526004018080602001828103825260228152602001806106e56022913960400191505060405180910390fd5b8260000160005060008373ffffffffffffffffffffffffffffffffffffffff1673ffffffffffffffffffffffffffffffffffffffff16815260200190815260200160002060009054906101000a900460ff1690506104f2565b92915050565b60006000303b90506000811491505061050d56505b90565b610520828261040f63ffffffff16565b1515610577576040517f08c379a00000000000000000000000000000000000000000000000000000000081526004018080602001828103825260218152602001806106c46021913960400191505060405180910390fd5b60008260000160005060008373ffffffffffffffffffffffffffffffffffffffff1673ffffffffffffffffffffffffffffffffffffffff16815260200190815260200160002060006101000a81548160ff0219169083151502179055505b5050565b6105e9828261040f63ffffffff16565b151515610661576040517f08c379a000000000000000000000000000000000000000000000000000000000815260040180806020018281038252601f8152602001807f526f6c65733a206163636f756e7420616c72656164792068617320726f6c650081526020015060200191505060405180910390fd5b60018260000160005060008373ffffffffffffffffffffffffffffffffffffffff1673ffffffffffffffffffffffffffffffffffffffff16815260200190815260200160002060006101000a81548160ff0219169083151502179055505b505056fe526f6c65733a206163636f756e7420646f6573206e6f74206861766520726f6c65526f6c65733a206163636f756e7420697320746865207a65726f2061646472657373436f6e747261637420696e7374616e63652068617320616c7265616479206265656e20696e697469616c697a656457686974656c69737441646d696e526f6c653a2063616c6c657220646f6573206e6f742068617665207468652057686974656c69737441646d696e20726f6c65a265627a7a72315820e3f521fd7a86e0b72192cca207b89ec6057dc7c7dc1e165a5334e4a19784585d64736f6c634300050c0032",
  "compiler": {
    "name": "solc",
    "version": "0.5.12+commit.7709ece9.Darwin.appleclang",
    "optimizer": {},
    "evmVersion": "constantinople"
  }
}