{
  "fileName": "WhitelistedRole.sol",
  "contractName": "WhitelistedRole",
  "source": "pragma solidity ^0.5.0;\n\nimport \"@openzeppelin/upgrades/contracts/Initializable.sol\";\n\nimport \"../../GSN/Context.sol\";\nimport \"../Roles.sol\";\nimport \"./WhitelistAdminRole.sol\";\n\n/**\n * @title WhitelistedRole\n * @dev Whitelisted accounts have been approved by a WhitelistAdmin to perform certain actions (e.g. participate in a\n * crowdsale). This role is special in that the only accounts that can add it are WhitelistAdmins (who can also remove\n * it), and not Whitelisteds themselves.\n */\ncontract WhitelistedRole is Initializable, Context, WhitelistAdminRole {\n    using Roles for Roles.Role;\n\n    event WhitelistedAdded(address indexed account);\n    event WhitelistedRemoved(address indexed account);\n\n    Roles.Role private _whitelisteds;\n\n    modifier onlyWhitelisted() {\n        require(isWhitelisted(_msgSender()), \"WhitelistedRole: caller does not have the Whitelisted role\");\n        _;\n    }\n\n    function initialize(address sender) public initializer {\n        WhitelistAdminRole.initialize(sender);\n    }\n\n    function isWhitelisted(address account) public view returns (bool) {\n        return _whitelisteds.has(account);\n    }\n\n    function addWhitelisted(address account) public onlyWhitelistAdmin {\n        _addWhitelisted(account);\n    }\n\n    function removeWhitelisted(address account) public onlyWhitelistAdmin {\n        _removeWhitelisted(account);\n    }\n\n    function renounceWhitelisted() public {\n        _removeWhitelisted(_msgSender());\n    }\n\n    function _addWhitelisted(address account) internal {\n        _whitelisteds.add(account);\n        emit WhitelistedAdded(account);\n    }\n\n    function _removeWhitelisted(address account) internal {\n        _whitelisteds.remove(account);\n        emit WhitelistedRemoved(account);\n    }\n\n    uint256[50] private ______gap;\n}\n",
  "sourcePath": "@openzeppelin/contracts-ethereum-package/contracts/access/roles/WhitelistedRole.sol",
  "abi": [
    {
      "anonymous": false,
      "inputs": [
        {
          "indexed": true,
          "internalType": "address",
          "name": "account",
          "type": "address"
        }
      ],
      "name": "WhitelistAdminAdded",
      "type": "event"
    },
    {
      "anonymous": false,
      "inputs": [
        {
          "indexed": true,
          "internalType": "address",
          "name": "account",
          "type": "address"
        }
      ],
      "name": "WhitelistAdminRemoved",
      "type": "event"
    },
    {
      "anonymous": false,
      "inputs": [
        {
          "indexed": true,
          "internalType": "address",
          "name": "account",
          "type": "address"
        }
      ],
      "name": "WhitelistedAdded",
      "type": "event"
    },
    {
      "anonymous": false,
      "inputs": [
        {
          "indexed": true,
          "internalType": "address",
          "name": "account",
          "type": "address"
        }
      ],
      "name": "WhitelistedRemoved",
      "type": "event"
    },
    {
      "constant": false,
      "inputs": [
        {
          "internalType": "address",
          "name": "account",
          "type": "address"
        }
      ],
      "name": "addWhitelistAdmin",
      "outputs": [],
      "payable": false,
      "stateMutability": "nonpayable",
      "type": "function"
    },
    {
      "constant": false,
      "inputs": [
        {
          "internalType": "address",
          "name": "account",
          "type": "address"
        }
      ],
      "name": "addWhitelisted",
      "outputs": [],
      "payable": false,
      "stateMutability": "nonpayable",
      "type": "function"
    },
    {
      "constant": false,
      "inputs": [
        {
          "internalType": "address",
          "name": "sender",
          "type": "address"
        }
      ],
      "name": "initialize",
      "outputs": [],
      "payable": false,
      "stateMutability": "nonpayable",
      "type": "function"
    },
    {
      "constant": true,
      "inputs": [
        {
          "internalType": "address",
          "name": "account",
          "type": "address"
        }
      ],
      "name": "isWhitelistAdmin",
      "outputs": [
        {
          "internalType": "bool",
          "name": "",
          "type": "bool"
        }
      ],
      "payable": false,
      "stateMutability": "view",
      "type": "function"
    },
    {
      "constant": true,
      "inputs": [
        {
          "internalType": "address",
          "name": "account",
          "type": "address"
        }
      ],
      "name": "isWhitelisted",
      "outputs": [
        {
          "internalType": "bool",
          "name": "",
          "type": "bool"
        }
      ],
      "payable": false,
      "stateMutability": "view",
      "type": "function"
    },
    {
      "constant": false,
      "inputs": [
        {
          "internalType": "address",
          "name": "account",
          "type": "address"
        }
      ],
      "name": "removeWhitelisted",
      "outputs": [],
      "payable": false,
      "stateMutability": "nonpayable",
      "type": "function"
    },
    {
      "constant": false,
      "inputs": [],
      "name": "renounceWhitelistAdmin",
      "outputs": [],
      "payable": false,
      "stateMutability": "nonpayable",
      "type": "function"
    },
    {
      "constant": false,
      "inputs": [],
      "name": "renounceWhitelisted",
      "outputs": [],
      "payable": false,
      "stateMutability": "nonpayable",
      "type": "function"
    }
  ],
  "bytecode": "0x60806040525b5b61000b565b610c018061001a6000396000f3fe60806040523480156100115760006000fd5b506004361061008d5760003560e01c80637362d9c81161005c5780637362d9c814610184578063bb5f747b146101c9578063c4d66de814610226578063d6cd94731461026b5761008d565b806310154bad14610093578063291d9549146100d85780633af32abf1461011d5780634c5a628c1461017a5761008d565b60006000fd5b6100d6600480360360208110156100aa5760006000fd5b81019080803573ffffffffffffffffffffffffffffffffffffffff169060200190929190505050610275565b005b61011b600480360360208110156100ef5760006000fd5b81019080803573ffffffffffffffffffffffffffffffffffffffff1690602001909291905050506102fc565b005b610160600480360360208110156101345760006000fd5b81019080803573ffffffffffffffffffffffffffffffffffffffff169060200190929190505050610383565b604051808215151515815260200191505060405180910390f35b6101826103a8565b005b6101c76004803603602081101561019b5760006000fd5b81019080803573ffffffffffffffffffffffffffffffffffffffff1690602001909291905050506103c7565b005b61020c600480360360208110156101e05760006000fd5b81019080803573ffffffffffffffffffffffffffffffffffffffff16906020019092919050505061044e565b604051808215151515815260200191505060405180910390f35b6102696004803603602081101561023d5760006000fd5b81019080803573ffffffffffffffffffffffffffffffffffffffff169060200190929190505050610473565b005b610273610590565b005b6102916102866105af63ffffffff16565b61044e63ffffffff16565b15156102e8576040517f08c379a0000000000000000000000000000000000000000000000000000000008152600401808060200182810382526040815260200180610b8d6040913960400191505060405180910390fd5b6102f7816105bc63ffffffff16565b5b5b50565b61031861030d6105af63ffffffff16565b61044e63ffffffff16565b151561036f576040517f08c379a0000000000000000000000000000000000000000000000000000000008152600401808060200182810382526040815260200180610b8d6040913960400191505060405180910390fd5b61037e8161061a63ffffffff16565b5b5b50565b600061039c82606660005061067890919063ffffffff16565b90506103a3565b919050565b6103c46103b96105af63ffffffff16565b61076163ffffffff16565b5b565b6103e36103d86105af63ffffffff16565b61044e63ffffffff16565b151561043a576040517f08c379a0000000000000000000000000000000000000000000000000000000008152600401808060200182810382526040815260200180610b8d6040913960400191505060405180910390fd5b610449816107bf63ffffffff16565b5b5b50565b600061046782603360005061067890919063ffffffff16565b905061046e565b919050565b600060019054906101000a900460ff1680610498575061049761081d63ffffffff16565b5b806104b05750600060009054906101000a900460ff16155b1515610507576040517f08c379a000000000000000000000000000000000000000000000000000000000815260040180806020018281038252602e815260200180610b5f602e913960400191505060405180910390fd5b6000600060019054906101000a900460ff161590508015610559576001600060016101000a81548160ff0219169083151502179055506001600060006101000a81548160ff0219169083151502179055505b6105688261083563ffffffff16565b5b801561058b576000600060016101000a81548160ff0219169083151502179055505b505b50565b6105ac6105a16105af63ffffffff16565b61061a63ffffffff16565b5b565b60003390506105b9565b90565b6105d381606660005061096890919063ffffffff16565b8073ffffffffffffffffffffffffffffffffffffffff167fee1504a83b6d4a361f4c1dc78ab59bfa30d6a3b6612c403e86bb01ef2984295f60405160405180910390a25b50565b610631816066600050610a5290919063ffffffff16565b8073ffffffffffffffffffffffffffffffffffffffff167f270d9b30cf5b0793bbfd54c9d5b94aeb49462b8148399000265144a8722da6b660405160405180910390a25b50565b6000600073ffffffffffffffffffffffffffffffffffffffff168273ffffffffffffffffffffffffffffffffffffffff1614151515610702576040517f08c379a0000000000000000000000000000000000000000000000000000000008152600401808060200182810382526022815260200180610b3d6022913960400191505060405180910390fd5b8260000160005060008373ffffffffffffffffffffffffffffffffffffffff1673ffffffffffffffffffffffffffffffffffffffff16815260200190815260200160002060009054906101000a900460ff16905061075b565b92915050565b610778816033600050610a5290919063ffffffff16565b8073ffffffffffffffffffffffffffffffffffffffff167f0a8eb35e5ca14b3d6f28e4abf2f128dbab231a58b56e89beb5d636115001e16560405160405180910390a25b50565b6107d681603360005061096890919063ffffffff16565b8073ffffffffffffffffffffffffffffffffffffffff167f22380c05984257a1cb900161c713dd71d39e74820f1aea43bd3f1bdd2096129960405160405180910390a25b50565b60006000303b90506000811491505061083256505b90565b600060019054906101000a900460ff168061085a575061085961081d63ffffffff16565b5b806108725750600060009054906101000a900460ff16155b15156108c9576040517f08c379a000000000000000000000000000000000000000000000000000000000815260040180806020018281038252602e815260200180610b5f602e913960400191505060405180910390fd5b6000600060019054906101000a900460ff16159050801561091b576001600060016101000a81548160ff0219169083151502179055506001600060006101000a81548160ff0219169083151502179055505b61092a8261044e63ffffffff16565b15156109405761093f826107bf63ffffffff16565b5b5b8015610963576000600060016101000a81548160ff0219169083151502179055505b505b50565b610978828261067863ffffffff16565b1515156109f0576040517f08c379a000000000000000000000000000000000000000000000000000000000815260040180806020018281038252601f8152602001807f526f6c65733a206163636f756e7420616c72656164792068617320726f6c650081526020015060200191505060405180910390fd5b60018260000160005060008373ffffffffffffffffffffffffffffffffffffffff1673ffffffffffffffffffffffffffffffffffffffff16815260200190815260200160002060006101000a81548160ff0219169083151502179055505b5050565b610a62828261067863ffffffff16565b1515610ab9576040517f08c379a0000000000000000000000000000000000000000000000000000000008152600401808060200182810382526021815260200180610b1c6021913960400191505060405180910390fd5b60008260000160005060008373ffffffffffffffffffffffffffffffffffffffff1673ffffffffffffffffffffffffffffffffffffffff16815260200190815260200160002060006101000a81548160ff0219169083151502179055505b505056fe526f6c65733a206163636f756e7420646f6573206e6f74206861766520726f6c65526f6c65733a206163636f756e7420697320746865207a65726f2061646472657373436f6e747261637420696e7374616e63652068617320616c7265616479206265656e20696e697469616c697a656457686974656c69737441646d696e526f6c653a2063616c6c657220646f6573206e6f742068617665207468652057686974656c69737441646d696e20726f6c65a265627a7a723158202b75887f93bec9b3815a5c0cdbb84be3631bb7eaf7fedebedc67c359967d078f64736f6c634300050c0032",
  "compiler": {
    "name": "solc",
    "version": "0.5.12+commit.7709ece9.Darwin.appleclang",
    "optimizer": {},
    "evmVersion": "constantinople"
  }
}